{
  "contractName": "ReceiveEther",
  "abi": [
    {
      "stateMutability": "payable",
      "type": "fallback",
      "payable": true
    },
    {
      "stateMutability": "payable",
      "type": "receive",
      "payable": true
    },
    {
      "inputs": [],
      "name": "getBalance",
      "outputs": [
        {
          "internalType": "uint256",
          "name": "",
          "type": "uint256"
        }
      ],
      "stateMutability": "view",
      "type": "function",
      "constant": true
    },
    {
      "inputs": [],
      "name": "sendViaCall",
      "outputs": [],
      "stateMutability": "payable",
      "type": "function",
      "payable": true
    }
  ],
  "bytecode": "0x608060405234801561001057600080fd5b50610252806100206000396000f3fe60806040526004361061002d5760003560e01c806312065fe014610036578063dbd81fc11461006157610034565b3661003457005b005b34801561004257600080fd5b5061004b61006b565b604051610058919061013e565b60405180910390f35b610069610073565b005b600047905090565b6000803073ffffffffffffffffffffffffffffffffffffffff163460405161009a9061018a565b60006040518083038185875af1925050503d80600081146100d7576040519150601f19603f3d011682016040523d82523d6000602084013e6100dc565b606091505b509150915081610121576040517f08c379a0000000000000000000000000000000000000000000000000000000008152600401610118906101fc565b60405180910390fd5b5050565b6000819050919050565b61013881610125565b82525050565b6000602082019050610153600083018461012f565b92915050565b600081905092915050565b50565b6000610174600083610159565b915061017f82610164565b600082019050919050565b600061019582610167565b9150819050919050565b600082825260208201905092915050565b7f4661696c656420746f2073656e64204574686572000000000000000000000000600082015250565b60006101e660148361019f565b91506101f1826101b0565b602082019050919050565b60006020820190508181036000830152610215816101d9565b905091905056fea26469706673582212202738122fe2baffa381581176de3d5f79d0415d0b9c07018b86b2894adf40973364736f6c634300080f0033",
  "immutableReferences": {},
  "source": "pragma solidity ^0.8.3;\n\ncontract ReceiveEther {\n    // Function to receive Ether. msg.data must be empty\n    receive() external payable {}\n\n    // Fallback function is called when msg.data is not empty\n    fallback() external payable {}\n\n    function getBalance() public view returns (uint) {\n        return address(this).balance;\n    }\n    function sendViaCall() public payable {\n        // Call returns a boolean value indicating success or failure.\n        // This is the current recommended method to use.\n        (bool sent, bytes memory data) = address(this).call{value: msg.value}(\"\");\n        require(sent, \"Failed to send Ether\");\n    }\n}",
  "sourcePath": "/home/giparang/threadweb/pogre/trufflebox/contracts/ReceiveEth.sol",
  "compiler": {
    "name": "solc",
    "version": "0.8.15+commit.e14f2714.Emscripten.clang"
  },
  "schemaVersion": "3.4.6",
  "updatedAt": "2022-07-10T19:42:01.046Z",
  "networkType": "ethereum",
  "devdoc": {
    "kind": "dev",
    "methods": {},
    "version": 1
  },
  "userdoc": {
    "kind": "user",
    "methods": {},
    "version": 1
  }
}